S0110000437265617465642062792052465033
S31500000000D8290020551F0000D50500009D050000D9
S315000000109D0500009D0500009D0500009D05000052
S315000000200000000000000000000000009D05000028
S315000000309D050000000000009D050000050600006B
S31500000040A51A0000011F0000150600002106000089
S31500000050000000000000000000000000000000009A
S31500000060000000000000000000000000000000008A
S31500000070000000000000000000000000000000007A
S31500000080000000000000000000000000000000006A
S31500000400FFFFFFFFDFCEFFFFFCFFFF00FFFFFF0048
S31500000410FCFFFF00FFFFFF00FCFFFF00FFFFFF00E8
S31500000420FCFF0F20FFFF0F20FCFF7F40FFFF7F40F8
S31500000430FCFF0D40FFFF0D40FFFFFFFFFFFFFFFF2B
S31500000440FFFFFFFFFFFFFFFFFFFFFFFFFFFFFFFFB6
S31500000450FFFFFFFFFFFFFFFFFFFFFFFFFFFFFFFFA6
S31500000460FFFFFFFFFFFFFFFFFFFFFFFFFFFFFFFF96
S31500000470FFFFFFFFFFFFFFFFFFFFFFFFFFFFFFFF86
S31500000480FFFFFFFFFFFFFFFFFFFFFFFFFFFFFFFF76
S31500000490FFFFFFFFFFFFFFFFFFFFFFFFFFFFFFFF66
S315000004A0FFFFFFFFFFFFFFFFFFFFFFFFFFFFFFFF56
S315000004B0FFFFFFFFFFFFFFFFFFFFFFFFFFFFFFFF46
S315000004C0FFFFFFFFFFFFFFFFFFFFFFFFFFFFFFFF36
S315000004D0FFFFFFFFFFFFFFFFFFFFFFFFFFFFFFFF26
S315000004E0FFFFFFFFFFFFFFFFFFFFFFFFFFFFFFFF16
S315000004F0FFFFFFFFFFFFFFFFFFFFFFFFFFFFFFFF06
S315000005000A4B53F8300011F07F03CAB20BD00849EA
S31500000510D20901EB0211194491F878301BB1373337
S3150000052000EB430070476030704700BFC82B0000E7
S31500000530E0050020014B01221A60704700E100E04F
S31500000540044B0122C3F88020BFF34F8FBFF36F8F98
S31500000550704700BF00E100E010B50446FFF7D0FF8A
S31500000560014670B12046FFF7EBFF0B8803F003034B
S3150000057043F002030B8002230B80BDE81040FFF717
S31500000580D9BF10BD044AB2F8CC309BB243F0800309
S31500000590A2F8CC30704700BF0000094000BE70478B
S315000005A0064B93F826101A6A054B53F82130C2F30E
S315000005B00262D340034A1360704700BF00E0014067
S315000005C0AC050020C0050020A0F101000028FBD1E9
S315000005D07047FFFF034AB2F840319BB2A2F83031B0
S315000005E0704700BF00600040C030054B53F8202024
S315000005F06FF3104243F8202053F82030704700BFB5
S3150000060000600040024A136801331360704700BF60
S31500000610D4110020EFF30380103840B2FFF7E4BF97
S31500000620FFF7F8BF0A4492B291424FEA400001D860
S31500000630824201DB121A92B2104670474B69024998
S315000006400B610121184700BFCC050020034A034671
S3150000065010780BB1FFF76EBFFFF772BFA805002039
S31500000660024B02225A8000221A7170477C07002032
S31500000670024B00221A80FFF7F3BF00BF7C07002061
S315000006800020FFF7F5BF01207047FFFF8B79012B94
S3150000069070B512D1CB79022B0FD100238D78184675
S315000006A0CC79022C1BD1824209D84FF0E023D3F833
S315000006B0F00D10F0010025D000BE002022E08C785D
S315000006C0AC42F2D1CE78DCB2A642EED10C7821440F
S315000006D020448C79012C80B203F10103E0D04B78E1
S315000006E0212BE2D1084B8A781A70B1F8053009300F
S315000006F0402B80B206D94FF0E023D3F8F03DDB075C
S3150000070000D500BE70BD00BF7C07002010B501F10A
S31500000710080400F00F02D3B2092ACCBF37333033B6
S3150000072004F8013DA1424FEA1010F2D110BDFFFFBF
S3150000073008B50146FFF758FFBFF35F8F4B09054A1F
S3150000074001F01F010120603300FA01F142F8231085
S3150000075008BD00BF00E100E00123420900F01F00D0
S3150000076003FA00F0014B43F82200704700E100E075
S31500000770084B1A68084B9A4209D1084BB3F8B23FA6
S3150000078003F08103002B0CBF0020082070470720D0
S31500000790704700BF141100204E45504F00F07E40B8
S315000007A0084B00221A719A78042A02D103229A7001
S315000007B07047072AFCD11A7812F0040F14BF0622DC
S315000007C00822F4E77C07002008B50378012B06D140
S315000007D003490B881BB1FFF7E3FF00230B8008BD1D
S315000007E00E110020EFF31080012383F310880A4ACC
S315000007F053889BB24BB90949B1F8FE339BB243F417
S31500000800254343F00203A1F8FE33538801339BB21C
S31500000810538080F3108870474C11002000E001409F
S31500000820EFF31081012383F310880C4A53889BB29F
S315000008301BB15388013B9BB2538053889BB24BB983
S31500000840074AB2F8FE339BB223F0020343F4254372
S31500000850A2F8FE3381F31088704700BF4C110020C8
S3150000086000E00140064B07481B68B0FBF3F306485F
S31500000870B0FBF3F0800801D0FFF7A6BE704700BFBB
S31500000880C005002000CA9A3B400D03002DE9F74F32
S31500000890524D534E04464FF00008238898452BD3FB
S315000008A0EFF31080012383F310884E4B196819B9B2
S315000008B04D4AD1704021D1701A6801321A6080F316
S315000008C010884A4D0020218882B2914267D8EFF302
S315000008D01081012282F310881A6812B11A68013A4F
S315000008E01A601A681AB9404BDA708022DA7081F3FE
S315000008F0108803B0BDE8F08F3D4B01934FEAC8095D
S3150000090000276368019803EB090130F8022B8988F8
S315000009100190914227D153F8093095F8BB14012272
S3150000092003F0B853BA40B3F1807F5FFA82FA07F159
S31500000930200B1ED111EA0A0F09D1FFF753FF95F8D4
S31500000940BB1441EA0A0285F8BB24FFF769FF16F8D3
S315000009501B20D30907D116F81B2042F0800206F8A7
S315000009601B20FFF77FFF0137032FCAD108F10108CB
S3150000097093E711EA0A0F09D0FFF734FF95F8BB1485
S3150000098021EA0A0285F8BB24FFF74AFF16F81B2066
S31500000990D309E8D016F81B206FF3C712DFE76668A5
S315000009A082B206EBC20156F83260898816F4803F9F
S315000009B04FEA11224FEA0212C9B20AD0571855F867
S315000009C027C06FF3104C45F827C026F4803C45F845
S315000009D027C00A44013045F8226074E700E0014070
S315000009E00040044054110020000D0440000804405B
S315000009F0982B0000030143EA801040F4847040F015
S31500000A000100704710B5041E0EDB04F1604303F5C8
S31500000A1061430901C9B283F80013FFF789FE204636
S31500000A20BDE81040FFF798BE10BDFFFF30B5184D6A
S31500000A30AB686D689C6E2D78032D98BF013408B1A4
S31500000A40A0421CD35B6BD20754BF03F01F03C3F352
S31500000A500443032D07D91B0983F0010348B9A3B941
S31500000A6002234B6030BD03F00C031A1F534253415F
S31500000A70F4E7A04201D3002BF2D10323F1E7032DC3
S31500000A8098BF00F1FF300860ECE7002CE8D0F4E7EF
S31500000A90B011002022F0010330B5034454089842F7
S31500000AA007D16FF0010303FB04220AB103780B7030
S31500000AB030BD30F8025B0D80F1E7FFFFF0B501F0C5
S31500000AC00307032F85B00C4607D02E4E73681B789C
S31500000AD0062B01F00C0202D122B905B0F0BD0AB115
S31500000AE0032BFAD13268284B9A42F6D1B3685B6E73
S31500000AF001338342F1D34FF0FF320023CDE90223C5
S31500000B0002A922460190FFF791FFB2680399156B7F
S31500000B100198B1B914F0080F0CBF0223042314F096
S31500000B20020F05BFDB19123302EB830302EB8303CB
S31500000B30DDF808C016BFC3F84CC0C3F804C0C3F83C
S31500000B4050C0630642BF136C43F480031364012F45
S31500000B5015D025F44035022C45EA01450AD119B1D4
S31500000B60012202A9FFF762FF039B25F0407545EAC3
S31500000B70036501E0002FF7D1B3681D63ADE7022CD2
S31500000B80EDD0F1E7B011002054504700F8B50389C5
S31500000B90448985889BB2A4B2A34236BFC4EB450CF8
S31500000BA0A3EB040C9C441FFA8CFC654506461ED834
S31500000BB00020074603460446944228BF14463D19C2
S31500000BC0AF422BD1121B92B23AB1934228BF1346C1
S31500000BD0C218904227D123449CB23189B08822465C
S31500000BE089B2FFF71FFD3081F8BD5B1B9BB29D42AA
S31500000BF0FBD9A5420FD93068A34200EB03072DBFEE
S31500000C00EC1AE31A0020A3EB0C0335BF9CB2A4B286
S31500000C1003469BB2D0E7641BA4B2EAE791F800C092
S31500000C2007F801CBCCE70D7800F8015BD1E72DE999
S31500000C30F041B0F808C0438984881FFA8CFC9BB247
S31500000C409C4536BFC3EB4405ACEB03056544ADB22A
S31500000C50AC420746164608D2A4452CBFACEB0403AB
S31500000C600CEB04039BB2438125463DB92C46A846AE
S31500000C70284612E0ACEB040C1FFA8CFC6445F9D94B
S31500000C809C4225D9D7F800809C4508EB030022D862
S31500000C902D1BE21A1D44ACB295B2B54228BF3546AB
S31500000CA02A46FFF7F7FE721B92B242B1944228BF62
S31500000CB0144622464046FFF7EDFE2544ADB279893B
S31500000CC0B8882A4689B2FFF7ADFC7881BDE8F08185
S31500000CD01B1B9BB2D4E74FF000084446DDE7FFFF3D
S31500000CE02DE9F341154CE588074625B92560012015
S31500000CF002B0BDE8F081B0F85E8008F07F08454597
S31500000D002E4628BF46463EB1637A206807F1140195
S31500000D10324663B1FFF78BFF464538BF4FF40043B9
S31500000D20A5EB060538BF7B84E5800020E0E701904F
S31500000D30FFF7B0FE019830442060EDE7E0050020A3
S31500000D402DE9F3470C23274D4B43EA180446D78871
S31500000D500E4627B9EF50012002B0BDE8F0878BB2EE
S31500000D6043F480620285A0F86430B0F86CA01FFAE4
S31500000D708AFA238D03F00F039E42FAD1638D9B04FA
S31500000D80FCD55745B84628BFD046B8F1000F0ED05F
S31500000D904FF00C0909FB06F905EB090355F80900A4
S31500000DA05B7A04F1180142469BB1FFF740FFD0453C
S31500000DB03CBF4FF40043638500232385208D10F04C
S31500000DC00F00FBD10C2101FB0655A7EB0807EF80AE
S31500000DD0C2E70190FFF75EFE0198404445F809001E
S31500000DE0E5E700BFE00500202DE9F0473C4E06EBA5
S31500000DF0D0138A4693F8294014F001040746114699
S31500000E004FEAD0190BD04FF0E023D3F8F03DD907C5
S31500000E1003D400242046BDE8F08700BEF9E7314A36
S31500000E2092F8008093F8292042F0010283F82920E5
S31500000E302D4B53F838504046FFF782FB0DB900BEE4
S31500000E40FEE7002F3AD04FF484632B842B8C9A064E
S31500000E50FCD5264B00225A729980D980002939D0B8
S31500000E60C3F800A0002F31D0B5F86030180403D5C0
S31500000E70B5F85430190626D44FF0E023D3F8F03DE8
S31500000E80DA0700D500BE4046FFF754FB002CC1D15F
S31500000E9006EB090393F8292064F3000283F829205E
S31500000EA093F8292064F3820283F829204FF0E02387
S31500000EB0D3F8F03DDB07ACD500BEABE72F842B8C17
S31500000EC09B06FCD4C5E72846FFF70AFF0124A5F8D0
S31500000ED06040D8E719600523A5F860300124D2E701
S31500000EE008080020A8050020C82B0000E005002007
S31500000EF010F0800F4FF0000211460CBF8020104604
S31500000F00FFF772BF10B40346064C006859682246C4
S31500000F1003C20022C4E902225DF8044B1878FFF7E9
S31500000F20E7BF00BFCC0500202DE9F041174D184E54
S31500000F30184F804600242A78E3B29A4210D23D2206
S31500000F400021154801F030FD1022FF21134801F061
S31500000F502BFDBDE8F04112481422FF2101F024BD0B
S31500000F600CD93A6812EB43130BD14FF0E023D3F8B8
S31500000F70F03DDB0700D500BEBDE8F0819B1A06EB0D
S31500000F804313DB68404698470134D4E7C805002080
S31500000F90A42A0000C4050020080800200D0800202F
S31500000FA01D08002070B505890389428986889BB291
S31500000FB092B2934236BFC2EB46029B1A9B189BB273
S31500000FC09E420446ADB217D8C079C00914D170BD8F
S31500000FD09B1B9BB2B342FBD2E2882068C2F30E028F
S31500000FE002FB030001F0D2FCA08801222946FFF78C
S31500000FF019FB20810120EAE72B46EBE713B5124BDC
S315000010009889D98993F90040421A92B2402A28BF9A
S315000010104022002C0EDA884212D099680B480192C1
S3150000102001F0B4FC0949019A802002B0BDE81040E5
S31500001030FFF7DABE88424FF0000003D10021F4E743
S315000010408020FBE70149F0E7CC050020C807002017
S3150000105070B50446164D00680B466168AB602E46B7
S3150000106003C60021E981E1888A4228BF0A46AA818F
S31500001070E18881B152B14BB94FF0E022D2F8F02DA0
S31500001080D20701D4002070BD00BEFBE7FFF7B6FF14
S3150000109028B10120F7E72078FFF72AFFF8E74FF09D
S315000010A0E023D3F8F03DDB07ECD500BEEBE700BF4D
S315000010B0CC05002007B58DF800208DF801301A0AFE
S315000010C01B0C8DF802208DF803308DF804100023D8
S315000010D0062269468DF80530FFF7BAFF03B05DF8C2
S315000010E004FBFFFF2DE9F04F87B0B94B1D680020C8
S315000010F02B689847A989EB89288989B29BB29942BE
S3150000110036BFC3EB4002CA1A521894B29CB1A04231
S3150000111005D281422CBF091A09188BB2EB8198427D
S3150000112026D96A896968C2F30E0202FB031103A875
S3150000113001F02CFC0124E9892889224689B2FFF7AF
S3150000114071FA2B68E88101209847002C00F0B883DB
S315000011509DF80D30013B072B00F25E83DFE813F0AC
S315000011600B001900C803BD03BD0323003B03C003E6
S315000011701B1A9BB2D3E79DF80C00FFF7D5FE14228D
S315000011809448002101F010FC934B9DF810209A70B2
S31500001190ABE79DF80C00FFF7C7FE142200218D482F
S315000011A001F002FCA1E78C4CE378013BDBB2E37073
S315000011B0E27802F0FF03002A97D12278DFF8148242
S315000011C09DF80C60C8F8103042F00102227094F8C5
S315000011D0292063F3000284F8292094F8292063F378
S315000011E0820284F8292094F82A2063F3000284F806
S315000011F02A2094F82A2063F3820284F82A209DF894
S31500001200102002F06003602B08D14FF0E023D3F8E2
S31500001210F03DD90740F1748200BE71E2402B0ED139
S315000012206E4B002B00F06C8204AA01213046C8F8F0
S315000012301030AFF3008000287FF457AF60E202F071
S315000012401F02012A00F0E181022A00F00882002A2A
S31500001250DBD1202B1CD19DF814300F2B00F25082CD
S315000012605F4A234411785B798B420AD25D4A116842
S3150000127011EB431100F0448204AA3046FFF7DEF971
S31500001280D9E740F03D825B1A574901EB4311F3E77A
S31500001290002BBAD19DF81130092BB6D801A252F80D
S315000012A023F000BFEB150000D91500000B1200005B
S315000012B0C51500000B120000CD120000B714000087
S315000012C00B120000E7120000F112000006AB13E952
S315000012D003000023C8E90233237843F00203C8E978
S315000012E00001237001E763788DF80A30012286E158
S315000012F09DF8127063789F4200F0D8806378EBB156
S315000013003A4BDFF8F08053F83610002588F89850ED
S315000013100B8E65F34D330B863046FFF711F901F15D
S31500001320600B43464FF00A0EBEF1010E1ED1304649
S31500001330FFF700F9A578FFF7F7FDA570002F00F07D
S31500001340B58023782A49DFF898A023F0300323706C
S315000013504FF001094B78042B4ED04FF0E023D3F821
S31500001360F03DDC077FF551AF00BE4EE793F87420E1
S3150000137052B302F07F09D209100108EB02124A4467
S31500001380B1F836C092F878204FF0010A1FFA8CFCAB
S315000013900AFA02FA2CEA0A0CA1F836C0B2B102F136
S315000013A0370C01EB4C0CACF800501FFA82FCA1F88C
S315000013B064C040444FF00C0C0CFB02828144A1F83F
S315000013C06850157289F878500C3BADE7DC46EAE7C1
S315000013D048080020CC050020080800200000000076
S315000013E0C8050020C4050020A42A0000C82B000060
S315000013F0F52A0000E0050020AD4BDFF8ECB25A1AE2
S3150000140092B24FF000089AF800305FFA88F5AB42C6
S31500001410A3D311D9A74B1B6813EB45139DD01B69AA
S315000014203046CDE9001298470828DDE900123AD97E
S31500001430824238D300220FE0EB1A0BEB4313EEE7A0
S3150000144091F802C0634454FA83F3013293F805C05D
S31500001450BCF1FF0F81D15D71D3B29945F0D8084434
S31500001460884212D89AF80030AB42FFF476AF904B20
S3150000147098421BD243780B2B03BF037890F8039056
S31500001480C0184FF00109014664E74B78052B07D1D8
S315000014908A7802F07F0304EB430303EBD2135D75F6
S315000014A00B781944DCE708F10108ACE7677004A87B
S315000014B0FFF728FD19E6BDF81200030A5A1EC0B24E
S315000014C00E2A00F21D81DFE812F00F002100300025
S315000014D01B011B01710021001B011B011B011B01CC
S315000014E01B011B011B0115007349122204A8FFF7FB
S315000014F0AFFDA0E6714B002B00F00281AFF3008038
S31500001500014600283FF481AE4A88EFE7022B01D15D
S315000015106B49F9E76B4B002B00F0F280AFF30080CC
S3150000152000283FF472AE0146EEE770B96649674897
S31500001530022201F02BFA01204000821C644942F489
S3150000154040730B8002F0FE02D0E7052800F2D88037
S31500001550604B614C53F820502378BBB95F4BD3F8EE
S315000015609C3103F1140658692146FFF7CFF87068DD
S3150000157004F10801FFF7CAF8B06804F11001FFF79B
S31500001580C5F8F06804F11801FFF7C0F8284601F025
S3150000159013FA4F49C0B20023DAB2824203F10103C3
S315000015A0CAD2541CAA5C21F81420F5E74C4B002B38
S315000015B000F0A680AFF300800146002800F0A0806E
S315000015C0027893E7BDF81230012B40F0998023781A
S315000015D043F0080323706AE7BDF81230012B40F090
S315000015E08F8023786FF3C303F4E72378C3F34012A5
S315000015F09B0803F002031343ADF80A3002220DF1F3
S315000016000A0104A8FFF724FD6FE59DF814300F2B9F
S3150000161076D8344A234412785B7993421CD2254A01
S31500001620116811EB43116BD004AA3046FFF706F898
S3150000163000287FF45AAD9DF8103013F060035FD197
S315000016409DF81120A2F10A01012959D80A2AC8F8E1
S3150000165010307FF42CAF47E652D12349E4E79DF8DA
S31500001660149009F07F02092A3FF6CFAD550004EB2E
S3150000167042021C4902EBD9120978527D8A424FEA8E
S31500001680D91A33D20B490F6807EB4217B3BB9DF843
S31500001690113003F0FD02012A3DD0002B7FF4B5ADD9
S315000016A02C44A2449AF82930C3F34003A4E700BFB0
S315000016B0102B0000C4050020102B000000000000C5
S315000016C0EC2A000000000000A02A00007E06002090
S315000016D07C060020D02B00005811002000B07F406F
S315000016E000000000C8050020A42A000040F0048184
S315000016F0844F002BCBD004AA3946BEE5002FFAD181
S315000017009DF80C000021FEF727FF9DF80C008021B4
S31500001710FEF722FFE9E4BDF81220002A39D17A4A01
S31500001720012B92F800B045D1494658460193FEF781
S31500001730E7FE0146F8B1754A584652F83B2000923A
S31500001740FEF7FEFE4FF48070DDE900230880BAF153
S31500001750000F01D00B800BE06D48484490F87800EC
S31500001760A2F86400B2F86820C2F38132012AF1D1EE
S315000017705846FEF7DFFE2544AA449AF829306FF34F
S3150000178041038AF829309AF829306FF300038AF862
S315000017902930002F3FF4A9AC04AA39463046FEF79B
S315000017A04DFF0023C8F8103094F82A30D8073FF5CB
S315000017B09CAC7CE62544AA4449465846FEF7CCFE36
S315000017C09AF8293043F002038AF829309AF829302A
S315000017D043F00103DBE79DF810104E4B01F07F0448
S315000017E003EB440303EBD113CF0993F829006FF3FE
S315000017F0000083F8290093F829006FF3820083F82C
S315000018002900002C4BD1444C9DF80C602378059D93
S31500001810B7EBD31F12D045B14FF0E023D3F8F03D1C
S31500001820DB077FF562AC00BE5FE42369002B3FF463
S315000018305CAC224603213046984756E494F90030C2
S31500001840002B07DBA06800283FF44FAC33492A463B
S3150000185001F09CF8A268E3892A442B44A260E2883E
S315000018609BB29A42E38101D03F2D15D8236933B943
S315000018702078FFF73DFB00287FF437ACCCE7022148
S31500001880254A3046984701460028F1D13046FEF7F2
S3150000189063FE802130463BE7FFF7B0FBEBE75A7D5E
S315000018A01F4B1B789A420ED21E4B1B6813EB42133A
S315000018B00BD14FF0E023D3F8F03DDA0700D500BE98
S315000018C007B0BDE8F08FF4D10E4B9C699DF811204E
S315000018D0059B9DF80C00A04707E40E4B1B7804E41B
S315000018E0049B002B3FF401AC05989847FFF7FDBB1E
S315000018F0084B1B79FFF7F9BB002B7FF401AF1F469E
S31500001900C5E600BFA42A0000A8050020C82B0000D9
S31500001910E005002008080020CC050020C8070020AC
S31500001920C8050020C405002008B50D4C0D4E2568DD
S31500001930327823685B1B632B0CD9BFF34F8F0A49A0
S315000019400A4BCA6802F4E0621343CB60BFF34F8FC1
S3150000195000BFFDE7FF2AECD0FFF7C4FBE8E700BFB6
S31500001960D4110020A805002000ED00E00400FA05CF
S315000019702DE9FF414378023B0446042B13D8DFE8E8
S3150000198003F0037A161E8000414B1A786FF30002AB
S315000019901A701A7800216FF341021A7059701A787A
S315000019A061F382021A703B4B2146186851E0384BAE
S315000019B01A78D60758D51A7842F00402F2E7344A64
S315000019C01378DD0750D513786FF382031370EAE7B7
S315000019D04DD9D8F8002012EB431304D0DB6913B1BC
S315000019E061682078984701353278EBB29A42EFD297
S315000019F0274D2B7858071BD52B786FF382032B7056
S31500001A000023CDE90133039323788DF804300523B1
S31500001A108DF805301F4B186801A90430FFF7C2FA8C
S31500001A2030B94FF0E023D3F8F03DD90700D500BE1A
S31500001A302B79DA0718D500230193039323788DF8C1
S31500001A40043003238DF8053063680293114B186840
S31500001A5001A90430FFF7A6FA30B94FF0E023D3F816
S31500001A60F03DDB0700D500BE04B0BDE8F0819B1A4F
S31500001A7007EB4313B2E7084E084FDFF82480002532
S31500001A80B2E7034AD3780133DBB2D3708BE700BFEA
S31500001A900808002048080020C8050020A42A0000E5
S31500001AA0C40500202DE9F04F89B0EFF3038010380C
S31500001AB040B2FEF799FDB04BB3F84010CA4362F44A
S31500001AC078428CB292B20904A3F840200CD5B3F840
S31500001AD0402012F0800FC2F3C0111A8814BF42F0E2
S31500001AE0100261F304121A80620412D50023CDE9B4
S31500001AF00533079305A805238DF81530FFF738FF42
S31500001B009E4B93F8981021B99B4B1A8E61F34D3278
S31500001B101A86A30419D5984D2B8E9F0415D5B5F8B2
S31500001B204C300022C3F30A030592079205A803224C
S31500001B308DF815200693FFF71BFF904B93F898201E
S31500001B401AB92B8E62F34D332B86E60407D504F0C3
S31500001B507003202B00F0DC805ED8102B7AD0200595
S31500001B602DD5E10740F1F380834BB3F840201207EF
S31500001B7025D54FF480425A84B3F85420ADF80C2092
S31500001B80B3F85620ADF80E20B3F85820ADF8102063
S31500001B90B3F85A20ADF812204FF6F772A3F840209A
S31500001BA00023CDE9053307930822062303A906A8D7
S31500001BB08DF8153000F0EAFE05A8FFF7D9FE670597
S31500001BC015D56D48B0F84A300022DE07A0F84A2045
S31500001BD00DD5FFF785F850B1684B4FF4E0659B884B
S31500001BE00793802205A8CDE90552FFF7C1FEE0055F
S31500001BF00FD5614B614CDA8EB3F84660DFF88CA1E5
S31500001C00B6B21640F24392B2A3F84620002E40F038
S31500001C10BF8009B0BDE8F08F602B04D018D804F05F
S31500001C206003402B9BD10023CDE90533079305A81C
S31500001C3004238DF81530FFF79BFE504B93F8983030
S31500001C40002B8CD14C4A138E43F40053138686E73F
S31500001C50702BE7E7484B01225A87DA864FF4804219
S31500001C605A8400221A851A8D12F00F02FBD19A852A
S31500001C709A8D12F00F02FBD1414D42493E48012395
S31500001C8094464FF400774FF480761FFA83FEA0F84F
S31500001C9064E0A0F868C021F8137021F8132025F835
S31500001CA023600133062BF0D10025334E28464FF42E
S31500001CB000729FB2A6F86470A6F8680021F8132097
S31500001CC021F8135001330A2BF3D12C489C22002112
S31500001CD000F06AFE338903F00703013B9BB2022B37
S31500001CE00DD8294A0795D35C0122CDE905558DF813
S31500001CF015208DF8183005A8FFF73AFE2FE74FF0AC
S31500001D00E023D3F8F03DDD077FF529AF00BE26E7D7
S31500001D10194BB3F8503013F07F023FF420AF002385
S31500001D200521CDE905338DF80C308DF80D10ADF891
S31500001D300E20ADF81030ADF81230079308220623B6
S31500001D4003A906A88DF8153000F020FED3E714F09D
S31500001D5007037FF434AF084A128C079312F0200F62
S31500001D6014BF802200220721CDE905338DF8151016
S31500001D708DF8182020E700BF00000940E00500208C
S31500001D808C0009406E0009409D2A0000140009409D
S31500001D9096FAA6F5B5FA85F50C2202FB0542137AEA
S31500001DA0DB091DD054482946FEF7CAFF90B10C2323
S31500001DB003FB054305A89A88197ADB88D31A002203
S31500001DC0CDE9052207228DF815208DF81810079306
S31500001DD0FFF7CEFD012303FA05F526EA050615E70A
S31500001DE0454B002D52D0B2F806B0AAB21A85A3F818
S31500001DF06420B3F86C901FFA89F91A8D02F00F026D
S31500001E009542FAD15A8D9104FCD55F8DC7F30B0725
S31500001E104F4528BF4F460C236B43BB45D84628BFCA
S31500001E20B846E058E218B8F1000F07D0537AF3B17C
S31500001E30324901904246FEF7A9FE01982E4BC14554
S31500001E4084BF4FF480425A8500221A851A8D1207E4
S31500001E50FCD10C2303FB0542ABEB0801C145D18045
S31500001E6001D8BB45B6D86B430022E2509EE7224913
S31500001E7000EB08020346934203D10C226A43A350A7
S31500001E80DCE791F818C003F801CBF4E7B3F85E90ED
S31500001E905F8CB4F806B0C7F30B0709F07F094F450E
S31500001EA028BF4F46BB45D84628BFB846B8F1000FF5
S31500001EB006D0627A2068A2B142465146FEF766FE17
S31500001EC0C14582BF0C4B4FF480425A84ABEB0803EA
S31500001ED0C145E38002D8BB453FF67CAF00232360B3
S31500001EE065E700EB0802904201D12060E8E7197D22
S31500001EF000F8011BF7E700BF000009401800094081
S31500001F00FFF7D0BD13B5114B4AF68022A3F8B22FC6
S31500001F100F4B81680446062000F066FD93F8A0305A
S31500001F209B070CBF1020502000F056FD63681A78FE
S31500001F3052B193F911000190FEF7FAFB019802B035
S31500001F40BDE81040FEF708BC02B010BD00F07E40B0
S31500001F5000E001408FB5BC4BBC48BD4F4FF470024A
S31500001F60C3F888209F604AF20253A0F8FE3301238B
S31500001F7080F81F3490F8B134DD06FBD54FF42543C5
S31500001F80A0F8FE334AF20353A0F8FE33B14BB24930
S31500001F90B24C0022A3F80021B14BC3E900414FF433
S31500001FA00041C3E902121A61FEF7FAFA012380F82A
S31500001FB0803490F8A030A3B190F83620A34B1AB91C
S31500001FC093F83C20D207FBD593F8A020D606C2F39F
S31500001FD00011F9D49D4A83F8A01092F8A030DD06CE
S31500001FE0FBD49A48002380F8363090F83C30DC0762
S31500001FF0FBD501249B4B80F831400362002380F817
S315000020002630FEF7CDFA4FF4254380F8D040A0F8ED
S31500002010FE33904BA3F80441B3F80441A4B2002C5C
S31500002020FAD10125A3F800518DF807409DF8073035
S31500002030FEF7D8FBEFF3108285F310888A4ED6F8A8
S31500002040043123F00043C6F80431D6F8043182F394
S315000020501088864B1A68C2F300028DF807201A68AA
S31500002060C2F300028DF807201B68C3F300038DF846
S315000020700730EFF3108285F31088D6F8043143F069
S315000020800043C6F80431D6F8043182F31088FEF70F
S31500002090C7FB774B77489C804FF425421A803A68F5
S315000020A0754FA2F500619960DA60744A4FF4805169
S315000020B0A2F82011724A9D80121A214600F074FC83
S315000020C07048714A7149724D121A00F05FFCED1B9F
S315000020D0AD10A54200F3AA81FEF762FA6D4B00240B
S315000020E083F82840FEF77EFB584B83F8BB44FEF787
S315000020F097FB694A6149234603F1C000013312F890
S31500002100014B41F82040202BF6D162B6634D644C5A
S315000021102B68A34203D063482C60FEF7B7FB624FDF
S315000021204FF47A723B68B3FBF2F3013BB3F1807F65
S315000021300AD24FF0E022F0215361434B83F823107B
S3150000214000239361072313612B68A34202BF574BF9
S315000021504FF000629A623D4B554AD3F80015914202
S3150000216040F069814AF20252A3F8FE230022C3F826
S3150000217000254FF42542A3F8FE234E4B1A68A242CF
S3150000218003D04D481C60FEF781FB4C4CDFF83881CC
S315000021902368434500F0A8800823E360484B494A7A
S315000021A06360002501232374A2606561C4E90655B6
S315000021B0EFF3108283F31088D6F8083123F040033A
S315000021C0C6F80831D6F8083182F31088A3684FF4B0
S315000021D025421A60A3684FF08072DD62DD639D645C
S315000021E0DA624FF000421A615A619A6149F6950225
S315000021F05D6202A99D6244F64B40DD611D629A66EE
S315000022005A664FF0FF332A46CDE90235FEF70EFC3B
S31500002210A268029B53659365039B2846190641EA0B
S315000022200341FEF7E7FB4FF4AA039563C2F8885013
S315000022301364E368D36041F0030341F00101506386
S315000022401363284642E000BF00ED00E000E00140D5
S315000022500000000000C0014000127A00006CDC02A1
S31500002260AC05002000010110006F04400008044086
S31500002270000D0040C0050020AC05002000600040B5
S31500002280D811002000000020AC050020E82B00003B
S31500002290AC05002000400440482B0000A41100209B
S315000022A054524F502C2B0000C00500200000044063
S315000022B0358173079C110020A02B0000B01100206F
S315000022C0A82B000000830740545047001163FF21EC
S315000022D0FEF798FB29462846FEF794FB2946284632
S315000022E0FEF790FBC4F800806168087844F61F6327
S315000022F044F62062032898BF1A46A3689A660978AE
S3150000230019B942F20F7159659965D96ACD0705D495
S315000023105A664FF4AA021A64E268DA600021084697
S31500002320FEF7CCFB2368A94D434508BFD4E902322A
S31500002330A74C08BF5A602368AB4273D0A54B6360B5
S31500002340A5483A68002384F83430016AC1F3026371
S3150000235002FA03F3C1F30271CB40A049E3608B425A
S3150000236009D89F498B4206D09E498B4203D09E498D
S315000023708B4240F0BF80006A994FC0F3026002FAB8
S3150000238000F1C14003F5742303F23F2301F57421E4
S31500002390B3FBF7F3E36040F28353062001F23F21DB
S315000023A0B1FBF7F14B43B3FBF0F3236140F2763315
S315000023B04B43B3FBF0F3636158234B43B3FBF0F39A
S315000023C0A3618A4B8A4FA1604B43B3FBF0F3E361F1
S315000023D0884B4B43B3FBF0F32362874B4B43B3FB72
S315000023E0F0F36362854B002283F8C02F97F8903094
S315000023F0012B04D0012387F8903000F0F5FA7448D9
S31500002400FFF780FDE368D7F8D8217148013B03F058
S315000024101F0363F30502C7F8D82100F0E9FA002884
S3150000242065D125606A4800F0D3FA63E057F8043BAB
S31500002430984701344DE693F81014C90709D44AF2B7
S315000024400251A3F8FE13C3F800254FF42542A3F862
S31500002450FE236B4A1368B3F5FA7FFBD35E4B4AF251
S31500002460025C00214FF425454FF48042A3F8FEC3D9
S31500002470C3F80015A3F8FE53106800F07F40B0F1D2
S31500002480005F7FF47AAEA3F8FEC3EFF3108E4FF031
S31500002490010C8CF31088D6F8000140F40060C6F8F1
S315000024A00001D6F800018EF31088EFF3108E8CF33E
S315000024B01088D6F8000140F48050C6F80001D6F81E
S315000024C000018EF31088A3F8FE534E4B998072B626
S315000024D0BFF34F8FBFF36F8F4FF0E0231961C3F83F
S315000024E0082D136883F308885368984745E62368E0
S315000024F0AB4297D0444D2B78FF2B40F0A6803D226F
S315000025004248002100F050FA414B0022DA819A81BC
S31500002510404A1360404B23B14048AFF30080404B24
S3150000252018603E4FDFF80481DFF8F49000243A7813
S31500002530E3B29A427CD200222A70D6F80031394999
S3150000254023F40063C6F80031374B81F898201A88C7
S3150000255042F480621A801A885005FCD51A886FF3F7
S3150000256045121A801A886FF386121A801A8842F06A
S3150000257001021A800522C3F8F020D3F800246FF375
S315000025800412C3F80024B3F85E20402060F306026C
S31500002590A3F85E200022A3F8402091F898309342D9
S315000025A0214B14BF4FF47D424FF45D421A8601223F
S315000025B05A87DA86B3F84020120642BF1A8842F0DC
S315000025C010021A800020FDF7B5FF3EE04E45504F41
S315000025D014110020342B000000E00140FF083D00EC
S315000025E040420F0080841E00C0C62D00B86A050058
S315000025F000C07E40D066050068ED220000F07E40F7
S31500002600D4110020000D0040A80500200808002075
S31500002610980500204808002000000000C80500209A
S31500002620C4050020E005002000000940A42A00009F
S3150000263030D9D9F8002012EB43132ED14FF0E02306
S31500002640D3F8F03DDC0700D500BEFDF79BFF1F4F1A
S315000026501F4EDFF884802B78FF2B01D0FEF742FD5A
S315000026603A683368D21A632AF5D9D8F80040643339
S31500002670002120463360FEF721FA164B1A78BAB1CC
S31500002680B4F5FA6F0FD200221A704FF4FA63C8F845
S315000026900030E0E79B1A08EB43135B680134002B1C
S315000026A0CCD0984743E7A4F5FA64C8F80040D2E7CF
S315000026B004F5FA6444F61F629442C8F80040CAD989
S315000026C001221A7044F62063E1E700BFD41100200E
S315000026D0D011002010110020AC11002010B5104BB5
S315000026E01988FEF745F8C8B90E4A02EA8112A2F522
S315000026F06E33013B6FF47E318B420FD30A490B4C8C
S31500002700B1F5802F84F8340008D920464FF40063D1
S31500002710BDE8104002F5804200F062B910BD00BF6E
S315000027200C09002000F8FFFF0E09002014110020FC
S3150000273070B50C46117801F01F03012B154640F0C9
S31500002740118111F060011CD153780A2B10D00B2B8C
S3150000275040F00881012C01D0012424E0824B5288EC
S315000027605A70FDF77DFF2846BDE87040FEF7CABBEC
S31500002770012CF1D17D4922462846BDE87040FEF77E
S3150000278067BC202940F0EE805378062B00F2EA80E1
S31500002790DFE803F004321C520F140F00012C04D1A1
S315000027A02846FEF7AFFB204670BD032CD4D1FFF7B9
S315000027B0BBF8012CD0D1FDF753FFF1E7012CCBD1AB
S315000027C06B4922462846FEF743FCECE7012CC3D1B1
S315000027D0654E347814F00204E5D0EC88402C00F203
S315000027E0C18069882246614306F10C0000F0CEF8EC
S315000027F0224606F10C01BFE7012CADD15A4B1C78DD
S3150000280014F00104CFD09A78022A02D0052A40F0AB
S31500002810A980EA88402A00F2A58001221A716A88F6
S31500002820DA80EA881A81EA881AB103219970514937
S31500002830A2E706229A7096E74B4A9178032905D0BB
S31500002840062953D0012C87D1002309E0012C0BD196
S3150000285013793BB15378002B0CBF0023642304216A
S31500002860D2784EE00521FBE7032C7FF475AF14798F
S31500002870002C38D00423D18893703F4B15891980DA
S3150000288001F58071890111F4F86F14D172B6FDF764
S315000028906FFF78B9394EB1F5802F86F8340009D22A
S315000028A021F4FF614FF40063012221F00701304655
S315000028B000F08AF862B6324E324833882D492A46ED
S315000028C0184400F063F833881D44ADB2B5F5006FC7
S315000028D0358005D172B6FFF701FF62B6002333805B
S315000028E0FDF75EFF5FE70523937035E7012C0DD1F9
S315000028F01379D278002B08BF02214FF0000318BFCE
S3150000290007212846BDE87040FEF7D4BB032C7FF4B0
S3150000291023AF147924B30723937072B6FFF7DEFE54
S3150000292062B6FDF73DFFFDF723FF00287FF414AFE5
S31500002930124B18605B6893F9113013F1210F3FF4C5
S315000029400BAF5A09012103F01F0301FA03F32032EA
S315000029500D4941F82230BFF34F8FBFF36F8F22E747
S315000029600223C1E700241EE77C0700207D07002024
S315000029707E070020880700200C0900201411002083
S315000029800E1100200E09002000E100E00A449142E9
S3150000299000F1FF3300D1704710B511F8014B03F871
S315000029A0014F9142F9D110BD02440346934200D132
S315000029B0704703F8011BF9E7034613F8012B002AB9
S315000029C0FBD1181A013870475FF800F01103002098
S315000029D05FF800F0390100205FF800F08F0000205A
S315000029E05FF800F0390400205FF800F07D00002059
S315000029F05FF800F0B900002000000504342E352EE3
S31500002A0030004275696C7420776974682052656E6F
S31500002A106573617320416476616E63656420466CFC
S31500002A20657869626C6520536F667477617265209C
S31500002A305061636B6167652076657273696F6E209E
S31500002A40342E352E30005365656564005849414F74
S31500002A50205241344D31204446550040436F646551
S31500002A60466C617368202F3078303030303030302B
S31500002A70302F382A324B612C3132302A324B6700E4
S31500002A804044617461466C617368202F3078303839
S31500002A903030303030302F382A314B670001000299
S31500002AA00904FFFF00000000810600008706000001
S31500002AB0710600008D0600003127000000000000AE
S31500002AC000000000040000000B01000000000000F0
S31500002AD00A010000000001130704000000000113B2
S31500002AE00E090000000001130F090000090224006E
S31500002AF001010080320904000000FE0102040904FD
S31500002B00000100FE010205092107E803400001015A
S31500002B1012010002000000408628498000010102DF
S31500002B200301FFFF000001030B0100000500000088
S31500002B30C42A000000000000C907000000000000D1
S31500002B4000000000020702083334313200000000A2
S31500002B50000000000000000000000000000000006F
S31500002B60000000000000000001000000000000005E
S31500002B70000000000000000000000000000000004F
S31500002B80000000000000000000000000000000003F
S31500002B900000000000000000020403040404FFFF1C
S31500002BA001000000242B000002000000969800009F
S31500002BB0020000004B4C000003FF00000000000074
S31500002BC000000000682B0000000009400000000023
S31500002BD0A02A0000462A00004C2A000058110020B6
S31500002BE05B2A0000802A000010B5431E19440B4BD7
S31500002BF093F804416FF3000483F80441040C80B297
S31500002C00A3F81041D2B2A3F80801080C89B2C3F8A0
S31500002C102001A3F8181183F8142110BD00C07E40CE
S31500002C2082B00F4B0190D3F82C2151060FD500220C
S31500002C3083F814210190D3F82C21C2F38010520698
S31500002C4008D5019A2AB1019A013A0192F3E7019A4D
S31500002C5012B9142002B07047019A013A0192E2E7D4
S31500002C6000C07E404143032904D98908A1F101012E
S31500002C700029FBD17047094BA522C3F88021C24326
S31500002C80D2B283F8000183F8002183F8000193F89B
S31500002C900031834200D100BF704700BF00C07E40B4
S31500002CA073B51D4EB6F8B24FA4B24FF49643012C3D
S31500002CB00546019309D19220FFF7DDFF0320A9689D
S31500002CC0FFF7D0FF1220FFF7D6FF0820FFF7D3FF4C
S31500002CD0A96806204FF42A43FFF7C4FFA6F8B23FBF
S31500002CE0B6F8B20F80B270B9012C0AD10B4BA3F81B
S31500002CF00441B3F8040180B20028FAD10122A3F8F6
S31500002D00002102B070BD019B1BB1019B013B0193E9
S31500002D10E6E71420F5E700BF00F07E4000C0014062
S31500002D2010B5002380F834300C4BB3F8B23F9BB299
S31500002D3004460BB900F020FA094BD3F8242142F0DF
S31500002D400102C3F82421D3F824216FF30002C3F84B
S31500002D5024212046BDE81040A2E700BF00F07E40D7
S31500002D6000C07E40F8B50546084616461F46FFF7E2
S31500002D7057FF1428044604D12846FFF7D1FF204602
S31500002D80F8BD054BD3F8F0413440F8D02846FFF79C
S31500002D90C7FF3C46F3E700BF00C07E4010B50023E6
S31500002DA0934200D110BDCC5CC4540133F8E738B56A
S31500002DB01D4B0022A3F8002143681A7804467AB115
S31500002DC093F9113001215A0903F01F0301FA03F3A5
S31500002DD02032164941F82230BFF34F8FBFF36F8F71
S31500002DE0134B4AF60122A3F8B22F1220FFF743FF36
S31500002DF0104BA1680320FFF735FF93F8A03003407E
S31500002E00002B0BBF8221C2219220D2200CBF0625A7
S31500002E100425FFF730FF0846FFF72DFFA168284677
S31500002E20BDE838401EE700BF00C0014000E100E0F9
S31500002E3000F07E4000E0014082B00F4B0190D3F8D5
S31500002E402C2111060FD50022C3F8DC210190D3F8FE
S31500002E502C21C2F3C010120608D5019A2AB1019A94
S31500002E60013A0192F3E7019A12B9142002B07047B1
S31500002E70019A013A0192E2E700C07E4038B5054664
S31500002E80406AFFF7D9FF1428044604D12846FFF705
S31500002E9047FF204638BD054BD3F8F04114F0120425
S31500002EA0F7D02846FFF73CFF1824F2E700C07E4023
S31500002EB0F8B5054614460F461E46FFF778FF21462D
S31500002EC083223846FFF790FE0334A969A4084FF41D
S31500002ED0FC73102261432846FFF744FF48B9054BAF
S31500002EE0D3F82831C3F3C00333702846BDE8F84051
S31500002EF0D6E6F8BD00C07E40F8B5044615460E4637
S31500002F001F46FFF754FF0D4B93F804216FF30002A1
S31500002F1083F8042107FB05F184223046FFF764FE9F
S31500002F20E1691923112269432046FFF71BFF18B9EF
S31500002F302046BDE8F840B3E6F8BD00BF00C07E40BD
S31500002F402DE9F84F894680469246FFF730FF214C1F
S31500002F504D4683274FF6FF7B94F8043143F0010377
S31500002F6084F80431BAF1000F1DD1C4F830B1C4F8A9
S31500002F7038B1C4F8DC714046FFF780FF94F804319D
S31500002F806FF30003013784F80431064618B9872F1A
S31500002F9005F10405E0D14046FFF782FE002E18BF7A
S31500002FA03046BDE8F88F6A782B7843EA0223C4F8E6
S31500002FB03031BB00B3F5067F0DBFB9F80E30EA78A5
S31500002FC0AB784AEA030318BF43EA0223C4F8383150
S31500002FD0CFE700BF00C07E4013B5104C0B0C89B282
S31500002FE0A4F810310822A4F8081101466846FFF734
S31500002FF0D5FEBDF80030C4F83031BDF80230C4F853
S315000030003831BDF80430C4F84031BDF80630C4F894
S315000030104431812384F8143102B010BD00C07E40D3
S31500003020F8B5044617460E461D46FFF7C0FEC4E92E
S315000030300A67154AED08256392F804316FF3000319
S3150000304082F804310025236BBBB10DB12846F8BDCB
S31500003050D4E90A01FFF7C0FFA36A21690833A36216
S31500003060E36A0833E362236B013B236312221823CE
S315000030702046FFF777FE0546E5E7002DE6D1204618
S31500003080FFF70EFEE2E700BF00C07E400C4B5AB9C8
S31500003090C0F38F20C1F38F21C3F830018222C3F819
S315000030A03811C3F8DC21704740F47E404FF6FF72BA
S315000030B040F0FF00C3F83821C3F830018122F0E761
S315000030C000C07E40F8B5164607460D46164CFFF77B
S315000030D06EFE6EB1D4F8D83165F38713C4F8D831D3
S315000030E000253846FFF7DCFD002D18BF2846F8BD41
S315000030F094F8043115F0010F43F0010384F804310C
S315000031000CBF4FF48070002001223146FFF7BEFF4E
S315000031103846FFF7B3FE94F8043166F3000305461C
S3150000312084F80431DDE700BF00C07E4073B5114E60
S31500003130019205460C46FFF73AFE96F8043143F035
S31500003140010386F80431019900222046FFF79EFF0D
S315000031502846FFF793FE96F804316FF30003044602
S3150000316086F804312846FFF79BFD002C18BF204641
S3150000317002B070BD00C07E405FF800F0051F000081
S315000031804D0600004C08002010000C000000000056
S31500003190FF000000FFFFFFFFFFFFFFFFFFFFFFFF36
S315000031A0FFFFFFFFFFFFFFFFFFFFFFFFFFFFFFFF29
S315000031B0FFFFFFFFFFFFFFFFFFFFFFFFFFFFFFFF19
S315000031C0FFFFFFFFFFFFFFFFFFFFFFFFFFFFFFFF09
S315000031D0FFFFFFFFFFFFFFFFFFFFFFFFFFFFFFFFF9
S31500004000007F0020A979000051780000A579000002
S31500004010A5790000A5790000A5790000A579000022
S31500004020000000000000000000000000A57900006C
S31500004030A579000000000000A5790000A579000020
S31500004040000000000000000000000000000000006A
S31500004050000000000000000000000000000000005A
S31500004060000000000000000000000000000000004A
S31500004070000000000000000000000000000000003A
S31500004080000000000000000000000000000000002A
S31500004090000000000000000000000000000000001A
S315000040A0000000000000000000000000000000000A
S315000040B000000000000000000000000000000000FA
S315000040C010B5054C237833B9044B13B10448AFF34C
S315000040D000800123237010BDF800002000000000BE
S315000040E024DB000008B5034B1BB103490348AFF3BB
S315000040F0008008BD00000000FC00002024DB00005A
S3150000410010B50B4C0121207805F0ACFB2078094C4A
S31500004110012105F0BFFB204600F07DF82046142162
S3150000412000F0CAF92046BDE8104000F0C7B800BF4D
S315000041300000002014010020C043C0B2542809D852
S31500004140A0EB8003013B00EB4000DBB2C0B240EACB
S3150000415003407047A9280BD85538C0B200EB40037E
S31500004160A0EB80000138DBB2C0B240EA0320704702
S315000041705630C0B2A0EB800300EB4000013BC0B25A
S31500004180DBB20004F1E7FFFFF8B5114D0646002447
S3150000419000236A8899B2914203F101070CD2080202
S315000041A090FBF2F02044C0B2FFF7C6FF0246284655
S315000041B000F054F93B46ECE72846013400F07EF85F
S315000041C0A4B2304605F0E0FBB4F5A06FE0D1F8BD2F
S315000041D0140100201420FFF7D7BFFFFF522314223B
S315000041E00121014800F024B914010020014800F023
S315000041F003B800BF1401002010B50446C06809F0DA
S3150000420051F9B4F90600002803DB0021C0B205F01D
S3150000421029FB204610BD10B50446B0F9060000285B
S3150000422007DB0121C0B205F01DFB0021A07905F0D6
S3150000423031FB0123637010BD38B50446C0680D46D6
S3150000424009F030F9E07C237C98420CBF032004205F
S3150000425010FB05F080B2A08009F01CF9E06028B1DF
S31500004260A288002109F031F9658038BDA080608000
S31500004270FBE7F0B4FF29C1F38107C1F38112C1F353
S315000042800115477401F003078CBF0021012101705D
S31500004290C168C47C067CC2740574877461B1A41BB2
S315000042A06142A2EB050561416A426A41914203D02F
S315000042B04188F0BCFFF7C0BFF0BC7047C3682DE96A
S315000042C0F0410446002B5DD005F0A2FB63699842DD
S315000042D038BF60616369C01AB0F5967FF4D372B6D1
S315000042E0414BB4F90620414833F83210E568A688F8
S315000042F00A120123C9B203FA01F1036843F080737D
S3150000430003603B48036843F00103036002F1007257
S315000043102078384B02F500522E44520189B298B3E8
S3150000432018683C30B54225D215F8018B08274FF0A6
S31500004330800CD3F800E0AEEB000EBEF13B0FF8D9CF
S3150000434018EA0C0F186851810CD0D3F800E0AEEBD8
S31500004350000EBEF1250FF8D9013F11814FEA5C0C22
S31500004360E7D1DFE7D3F800E0AEEB000EBEF10B0FAE
S31500004370F8D9F1E71A68121A3B2AFBD962B605F09A
S3150000438047FB6061BDE8F08118687830B54225D2F8
S3150000439015F8018B08274FF0800CD3F800E0AEEB40
S315000043A0000EBEF1770FF8D918EA0C0F1868518184
S315000043B00CD0D3F800E0AEEB000EBEF1380FF8D902
S315000043C0013F11814FEA5C0CE7D1DFE7D3F800E04B
S315000043D0AEEB000EBEF1170FF8D9F1E71A68121A04
S315000043E0772AFBD9CAE700BF28D80000FCED00E019
S315000043F0001000E0041000E038B5437805460C468E
S315000044003BB1B0F90600002803DB0021C0B205F07D
S3150000441029FA6B78EC8053B1E4B22046012105F00D
S3150000442021FA20460021BDE8384005F033BA38BDF0
S3150000443070B50E460021044641700172C1604161AB
S3150000444019461546FFF715FF31462046FFF7F4FEDD
S3150000445020462946FFF7D0FF204670BD43888B4291
S31500004460F0B51CD9037AC2F30747C2F30726D5B2C3
S315000044702BB15F435E435D433F0A360A2D0A90F82F
S3150000448013C090F810E0C468E64509D101EB41017C
S315000044902144037CCF54437CCE54837CCD54F0BD61
S315000044A004EB8101120E1BB9D3B201F80C30F0E710
S315000044B05343C3F30723F8E74A1C037AD2B2934265
S315000044C070B51FD0013B13F0FF03C4680CD0FF2961
S315000044D01FBF110201F1FF3191FBF3F39BB204BF41
S315000044E04FF6FF7191FBF3F32546291B868889B2A7
S315000044F08E4206D929785943C1F3072105F8011BD5
S31500004500F3E7027270BD08B505F026FA002008BD73
S315000045101B207047034AB2F8CC3043F08003A2F860
S31500004520CC3070470000094037B50121132005F053
S3150000453099F90021132005F0ADF9684607220321F9
S3150000454008F028F9BDF800301C4CC3F3841301258C
S31500004550684607220521E55408F01CF9BDF800302D
S31500004560C3F38413684607220621E55408F012F9BE
S31500004570BDF80030C3F38413684607220921E554C9
S3150000458008F008F9BDF80030C3F384136846072223
S315000045900A21E55408F0FEF8BDF80030C3F3841391
S315000045A007220B216846E55408F0F4F8BDF8003000
S315000045B0C3F38413E55403B030BD00BF0A020020E4
S315000045C00B7930B4DB01114C114DDBB2A3714B7882
S315000045D08A781B01120302F44052DBB213430A78B5
S315000045E08446A85CCA78120202F4407200F0030006
S315000045F01343034363804B79064ADB01DBB2237224
S31500004600002030BCCCF80020704700BF00420440B8
S3150000461000D9000054445700024B0020FF221870B6
S315000046201A7070470042044030B5836A85B004466C
S315000046308C4601ADABB193E8070085E807006268D8
S31500004640117883F804C0E26A9A6019601846626AB3
S315000046509047A36A1BB195E8070083E8070005B0F9
S3150000466030BD2B46EBE700BF10B4EFF30383103BDE
S315000046705BB22149214C03F1C00051F8202022F4FD
S31500004680803241F8202054F82330D3E906218A42AB
S315000046901CD018699C6840B393F820C0BCF10F0F7A
S315000046A00AD9616840F82210D96901328A429A61B2
S315000046B00CD05DF8044B7047BCF1070F17D8217971
S315000046C08154D96901328A429A61F2D15B680C49F8
S315000046D093F903305DF8044B5809012203F01F03D8
S315000046E002FA03F341F8203070476068DDE7A488DA
S315000046F020F81240D9E700BF006000407801002092
S3150000470000E100E030B5EFF30383103B5BB203F149
S31500004710C0002C492C4C51F8202022F4803241F85C
S31500004720202054F823305868026A82B392F801C0F8
S31500004730DC695A69BCF1010F16D0A2420BD0D3E94D
S31500004740020129B193F820400F2C05D951F8221007
S31500004750416001325A6130BD072C95BF895C31F842
S31500004760121001718180F4E704F1FF3E964511D0E5
S3150000477001690029E1D090F9031014484FEA511E4F
S3150000478001F01F010CFA01F140F82E10D5E75A6925
S31500004790DC69D2E790F9034004F1C00E600980009D
S315000047A051F82E5000F1604000F5614004F01F04FE
S315000047B00CFA04F425F4803541F82E50C0F88041F7
S315000047C00460BCE7006000407801002000E100E0E2
S315000047D0EFF30383103B5AB2324802F1C00C03F0E8
S315000047E0FF0350F82C1021F4803140F82C102E498C
S315000047F051F822008168C978890704D54168497A49
S31500004800012900D07047520910B40121274C2032EB
S3150000481003F01F0301FA03F344F82230BFF34F8F6E
S31500004820BFF36F8F436893F90230002B2FDB5A09D1
S31500004830203203F01F0301FA03F344F82230BFF3DA
S315000048404F8FBFF36F8FD0E90124237892F90220AE
S3150000485023F04003002A237014DB02F1C00C114C34
S3150000486053099B0002F01F02914003F1604354F884
S315000048702C2003F5614322F4803244F82C20C3F83F
S31500004880801119605DF8044B0121FFF7CDBE8268E7
S315000048905DF8044B137823F0400313700121FFF7F2
S315000048A0C3BE00BF006000407801002000E100E0C8
S315000048B070B5EFF30384103C314B64B253F82460B7
S315000048C0736893F90230002B41DB5A092D492032D7
S315000048D0012003F01F0300FA03F341F82230BFF36F
S315000048E04F8FBFF36F8FD6E9012392F902101A7822
S315000048F0002922F040021A7014DB01F1C00C224D8F
S315000049004A09920001F01F01884002F1604255F801
S315000049102C1002F5614221F4803145F82C10C2F8C2
S3150000492080011060DA780021D5B21207D97021D43F
S31500004930EB0712D405F01405142D16D0124AC03414
S3150000494052F8243023F4803342F8243070BDB36823
S315000049501A7822F040021A70E4E70421304605F086
S315000049601405FFF761FE142DE8D108213046FFF744
S315000049705BFEE3E705213046FFF756FED8E700BFAA
S315000049807801002000E100E000600040036A70B595
S315000049900446987800F07B00987020780D4658BB46
S315000049A0E16994F802C00E690CF00301521A294419
S315000049B0C4E903124EB37AB1A378306803F0030357
S315000049C0013B22FA03F3B268966800229BB2226189
S315000049D0B04780B9236A20789A7842F080029A70AC
S315000049E040B994F802C00CF0030CBCF1020F15D0CC
S315000049F02A78DA70002070BDC4E90312E1690E69F5
S31500004A0096B12946002AE7D0D6E79A780CF0030C2F
S31500004A1042F08002BCF1020F9A70E9D12A8842F472
S31500004A207E42DA810020E6E79A7842F080029A70A8
S31500004A300020E0E7036A91F801C000B502469878C5
S31500004A4000F07B0E00F00B0098700020D0608A7892
S31500004A505A701A786CF301021A70CA789A7493F82D
S31500004A6007C00A780CF0A30102F05C020A43DA716F
S31500004A7083F802E05DF804FB10B5D0E907210023B6
S31500004A8043608B7092F905202F4904465009012393
S31500004A90203002F01F0203FA02F241F82020BFF391
S31500004AA04F8FBFF36F8FE26992F90B2050092030C8
S31500004AB002F01F0203FA02F241F82020BFF34F8FE3
S31500004AC0BFF36F8FE26992F907205009203002F098
S31500004AD01F0203FA02F241F82020BFF34F8FBFF303
S31500004AE06F8FE26992F90920500902F01F02934084
S31500004AF000F1200241F82230BFF34F8FBFF36F8FD2
S31500004B00E369DA6822B1936810681B6A9847E3691B
S31500004B101B691BB19A681868136A9847EFF31081EE
S31500004B20012383F31088E369084A1C78D2F8000150
S31500004B304FF00043E3400343C2F80031D2F800319E
S31500004B4081F31088002010BD00E100E0006F0440F2
S31500004B50F0B5846A85B005460F4694466E46B4B1F4
S31500004B6094E80F0086E80F00EB691B7884F804C010
S31500004B702360EB6A2046C4E902736B6A9847AC6A05
S31500004B801CB196E80F0084E80F0005B0F0BD34466E
S31500004B90EAE700BF2DE9F0470B780322DA4002F07E
S31500004BA001020D461201027003F10073AA694969F8
S31500004BB0416203F5605300265B01C0E90753C0E973
S31500004BC00A626A788378B24214BF0122022262F333
S31500004BD001038370044695F90B00D04B95F80AC083
S31500004BE04209203200F01F07012101FA07F743F8B6
S31500004BF02270BFF34F8FBFF36F8FC94AC94F00F1C1
S31500004C00C00E4FEA0C1C52F82E8066F3104842F88C
S31500004C102E8003EB000E5FFA8CFC8EF800C347F87B
S31500004C20204095F9050095F804C04FEA501E0EF194
S31500004C30200E00F01F0801FA08F843F82E80BFF393
S31500004C404F8FBFF36F8F00F1C00E03EB000952F8D0
S31500004C502E804FEA0C1C66F310485FFA8CFC42F873
S31500004C602E8089F800C347F8204095F9070095F88B
S31500004C7006C04FEA501E0EF1200E00F01F0801FA82
S31500004C8008F843F82E80BFF34F8FBFF36F8F00F104
S31500004C90C00E03EB000952F82E804FEA0C1C66F397
S31500004CA010485FFA8CFC42F82E8089F800C347F85A
S31500004CB0204095F9090095F808C04FEA501E0EF1FC
S31500004CC0200E00F01F0801FA08F143F82E10BFF37A
S31500004CD04F8FBFF36F8F4FEA0C1100F1C00C0344E6
S31500004CE052F82CE066F3104E42F82CE0C9B283F875
S31500004CF00013EB6847F8204003B35968E7690A6870
S31500004D004FF40020106094F800C0206A461DBCF1E4
S31500004D10000F00F0588111305060787830B9D078A3
S31500004D200B365660012666F30510D0709A6818682F
S31500004D30136898470646002840F042812B6903B362
S31500004D405968E7690A684FF00060106094F800C07F
S31500004D50206AC61CBCF1000F00F045810F30906040
S31500004D60787830B9D0780B369660012666F3051050
S31500004D70D0709A681868136898470646002840F06D
S31500004D803981EFF31080012383F31088664B2E7868
S31500004D90D3F800214FF00041F14022EA0102C3F8A6
S31500004DA00021D3F8003180F31088236AE0690022DD
S31500004DB09A701A715A729A72DA725A83297840F284
S31500004DC00722CA40D20744BF4022DA7406221A7765
S31500004DD022787AB1C168013A002900F015810126CE
S31500004DE0120391B2314341F006029A829A8A92B234
S31500004DF09142FBD1EA78A978D20042EA0112697899
S31500004E00032900F0E28000290CBFE221F221ED69BE
S31500004E10D2B21A7099712A7B520002F002025A73BA
S31500004E206A78A97800261E7295F800C0D201490159
S31500004E3001F02001D2B20A43ACF10201012940F28D
S31500004E40C880D2B2DA716A68917859701978567842
S31500004E5066F301011970D17899741278D97902F044
S31500004E605C0201F0A3010A43DA710027C4E9037763
S31500004E70C4E9057790F90510294E01F1C00E4A09DB
S31500004E8056F82E80920067F3104802F1604246F809
S31500004E902E8002F561424FF0010E01F01F010EFA5D
S31500004EA001F1C2F88011116090F90B1001F1C009EF
S31500004EB04A0956F829A0920002F1604202F56142C1
S31500004EC067F3104A01F01F0146F829A00EFA01F116
S31500004ED0C2F88011116090F9071001F1C0094A0962
S31500004EE056F829A0920002F1604202F5614201F0F3
S31500004EF01F0167F3104A46F829A00EFA01F1C2F81D
S31500004F008011116090F9091001F1C0004A0956F8A4
S31500004F102090920002F1604208E000BF00E100E04C
S31500004F200060004078010020006F044067F31049DC
S31500004F3046F8209002F561420CF0030C01F01F01C7
S31500004F400EFA01F14CF0700CC2F88011116083F872
S31500004F5002C06B8923814FF6FF7843452DD0EFF3CE
S31500004F6010818EF310882D4A13681BB92C48C37024
S31500004F704023C37013680133136081F310882189BD
S31500004F8028480B0A1B0153FA81F150F8213023F00F
S31500004F90011323F4404343F0040340F82130EFF3B8
S31500004FA01081012383F31088136813B11368013B42
S31500004FB013601368CBB181F310881B4B6360002626
S31500004FC03046BDE8F0873046A6E642F04002F221C0
S31500004FD01DE7BCF1020F08BF42F01002FF21D2B25A
S31500004FE05970DA7141E73046B9E60D4A8020D37030
S31500004FF0D070E0E7EB68002BE2D09A681868136A75
S3150000500098473046BDE8F087C1690E7A16403602E9
S3150000501006F4706646F00106E2E600BF7401002061
S31500005020000D044000080440554943532DE9F04F54
S315000050309B46FF238BF802309BF8003023F00403D5
S315000050408BF8003080238BF803306C4B91466C4A0A
S315000050501B6A12688FB00590C3F302608240C3F3E7
S315000050600233DA40674B0492994568DC0133002627
S31500005070100A0193A2FB032302900B960993089250
S3150000508035460A91CDF83490EBB2002400930C9586
S3150000509002E001340D2C4AD05B4B009A13F80480D1
S315000050A0C8F34009C8F3800A49EA0A039342F0D1DB
S315000050B0564B33F81470059B03FB07F7049BB3FBB1
S315000050C0F7F56B1EFF2B0393E3D807FB05F52A467E
S315000050D0DDE90801EB1708F017F80A9A039E002A83
S315000050E03AD1A0F5C330A0380028019BB8BF404292
S315000050F08342CEDD039B8BF802309BF80030019093
S31500005100C8F3000262F3861369F304136AF3C30358
S315000051108BF800309BF80130C8F3C10868F301032F
S3150000512001348BF801300D2C0A9B0B93B4D10C9DE6
S315000051304DB9019B0D9A93424FF00105A4DC002066
S315000051400FB0BDE8F08FDDF83490019B4B45F6DDDE
S3150000515003200FB0BDE8F08FCDE9069A0394DDE990
S315000051600889DDF804A00B9C05E0EB17404649468C
S31500005170013E07F0C9FF029BB5FBF3F27F2A02FB53
S3150000518000F035D90028B8BFFF300312A3F5C333AA
S31500005190A03B002BB8BF5B429A451DDD1A49039818
S315000051A08BF80260095C9A469BF8003014460A4662
S315000051B0C1F3000161F38613069961F3041307999D
S315000051C061F3C3038BF800309BF80130C2F3C102D0
S315000051D062F301038BF801309BF800308BF8034033
S315000051E0ED1B43F004032A468BF80030002EBCD199
S315000051F00B94CDF804A0039C4BE700BF00E00140F0
S31500005200040200209F86010024D9000008D900006E
S31500005210F0B5EFF30383103B5BB203F1C0003849EE
S31500005220384C51F8202022F4803241F8202054F8DE
S315000052302300C3691A69036992B103B1F0BD046A18
S31500005240A378426A03F07F0343F004030021A370AE
S31500005250C160002AF2D0BDE8F0408022FFF778BC9A
S31500005260046A002BECD005782DB3E18AC1F3042142
S315000052708D423FD990F802E0234F0EF00306CEF39D
S31500005280010E0CE092F800C084F80FC00131A3EBC8
S315000052900E0372448D42C0E903231FD9F3B1022ED7
S315000052A0C268EFD1B2F800C04CEA070C1FFA8CFCBA
S315000052B0A4F80EC0EAE790F802E0C2680EF0030117
S315000052C0022912D01178E1700EF0030EA3EB0E0343
S315000052D07244C0E90323002BB0D1B0E7227922F053
S315000052E080022271002BA9D1A9E7118841F47E41E1
S315000052F0E181E9E7237962F3C7132371F0BD00BFAB
S31500005300006000407801002000FEFFFF10B582B06B
S31500005310EFF30383103B5BB203F1C00059495A4CCB
S3150000532051F8202022F4803241F8202054F82340FE
S31500005330E369DB6813B1A369002B48D122894FF6D4
S31500005340FF739A4274D12078236AA8B9A27802F032
S315000053500302022A13D05979A369C9B20191ABB9E4
S31500005360636A23B120460422FFF7F2FB207838B3A4
S31500005370236ADA8AD2067DD0DA8AD1067AD0198AE9
S31500005380A369C1F308010191002BE9D0A2786069F5
S3150000539002F0030201A908F08DF8D4E90521A378EB
S315000053A003F003031A44C91AC4E9052129B9636A3B
S315000053B01BB101222046FFF7CBFB20780028D7D16E
S315000053C023894FF6FF7293420ED102B010BD636A75
S315000053D00021C4E90511002BF7D00122204602B0B6
S315000053E0BDE81040FFF7B4BB1A0A1201274952FA6A
S315000053F083F351F8232022F0011222F4404242F0B6
S31500005400040241F82320EFF31082012383F310886E
S315000054101F4B196811B11968013919601B681BB94E
S315000054201C498020CB70C87082F3108802B010BD72
S31500005430EFF31081012383F31088154B1A681AB90C
S315000054401448C2704022C2701A6801321A6081F391
S31500005450108822890D49130A1B0153FA82F251F86A
S31500005460223023F0011323F4404343F0050341F8AF
S31500005470223068E7BE221A7123894FF6FF729342E3
S31500005480A3D0B1E700600040780100200008044086
S3150000549074010020000D044010B5EFF30384103CA6
S315000054A00B4B64B253F82400D0E90821937803F03B
S315000054B07B03937019B102220021FFF749FB054ACD
S315000054C0C03452F8243023F4803342F8243010BD1F
S315000054D0780100200060004010B5EFF30384103C13
S315000054E0194B64B253F82400037843B9837803F068
S315000054F00303022B03D0036A5979C9B203E0036A96
S31500005500198AC1F3080193F804C01CF0100F0CF0BF
S31500005510380206D093F81CC01CF0010F08BF42F0F9
S31500005520400293F804C00CF0C70C83F804C0436A29
S315000055300BB1FFF70DFB054AC03452F8243023F4B3
S31500005540803342F8243010BD78010020006000400E
S3150000555030B5436A85B004468C4601ADABB193E8DD
S31500005560070085E807006268117883F804C0A26A1C
S315000055709A6019601846226A9047636A1BB195E8DB
S31500005580070083E8070005B030BD2B46EBE700BFF8
S3150000559010B4EFF30383103B5BB21549154C03F1CE
S315000055A0C00051F8202022F4803241F8202054F81F
S315000055B023305A69D9698A4206D2D3E90240A8B192
S315000055C0805CE07001325A618A4202D05DF8044B79
S315000055D070471A69002AF9D19A685DF8044B9378E6
S315000055E003F07B0343F0040393707047E070E9E730
S315000055F0006000407801002010B4EFF30383103BF5
S315000056005BB21849184C03F1C00051F8202022F46F
S31500005610803241F8202054F823305969DA699142E2
S3150000562006D2D3E90240D0B1405CE0700131596145
S315000056309969914207D298681A6940794C1C9C6115
S315000056405054D3E90612914206D19A68937803F032
S315000056503B0343F0040393705DF8044B7047E0701E
S31500005660E4E700BF006000407801002010B5EFF3CA
S315000056700384103C0A4B64B2012153F8240082686B
S31500005680937803F003039370FFF762FFC034054A73
S3150000569052F8243023F4803342F8243010BD00BF82
S315000056A0780100200060004010B5EFF30384103C41
S315000056B00C4B64B24FF0840C53F8240083689A783C
S315000056C002F003029A701A7983F804C00421FFF7E6
S315000056D03FFFC034044A52F8243023F4803342F8A2
S315000056E0243010BD7801002000600040036859692D
S315000056F0A1B190F82D3070B5044603F0FF0563B9EB
S315000057008A68038C96680868A1692A46B047E269E8
S31500005710C4E90852012384F8333070BD704700BFD6
S3150000572070B5866B82B004460B466D463EB396E86E
S31500005730030085E80300E26B3371236832605A691F
S3150000574012B194F82D10A1B19B6913B194F82D20D4
S3150000575052B9636B30469847A36B1BB195E80300BB
S3150000576083E8030002B070BD9A6818681369984709
S31500005770EFE7936810681B6998472368E4E72E46AD
S31500005780D9E700BFEFF30383103B5BB20449C03394
S3150000579051F8232022F4803241F82320704700BFBD
S315000057A00060004070B5EFF30383103B5BB26249C3
S315000057B0C03351F8232022F4803241F82320EFF33E
S315000057C00383103B5D4A5BB252F823402269137B88
S315000057D0C3F30000DB075CD494F82C3094F82A104D
S315000057E0994216D094F82D1009B1022B76D0204696
S315000057F0FFF77CFF236994F82820DA7094F82B20B1
S3150000580094F82C30013A013384F82B2084F82C309C
S3150000581070BD94F8333003F0FF05002B5BD1236A8B
S31500005820002B5ED094F82D10002961D094F8311029
S3150000583000296AD0216884F831504869002874D05C
S315000058408969002971D0E06902286ED98E68831EA5
S315000058500868B668F42191709BB2A2692946B047E0
S315000058602268E3695269916810688E68023B9BB2B0
S315000058702A462946B047E36922690220023BC4E969
S315000058800803012184F833100023FF209372D0709F
S3150000589070BD94F82D30B3B194F831309BB9636A7A
S315000058A0A1695279CA54D4E9082394F82E10013A12
S315000058B00133C4E9082321B3226952210123D1729D
S315000058C084F8303070BD002001215423206284F812
S315000058D02F10D37270BD84F8330070BD5223D3727B
S315000058E070BD94F82E30002BE7D15423D37270BDCF
S315000058F0616AA069013B405C0131C4E90831D0709E
S31500005900C6E723695422DA7270BD636AA1695279C7
S31500005910CA54D4E90832013B0132012BC4E90832EA
S31500005920226904D0FF20D070B2E7012BACD120232E
S31500005930FF209372D070ABE7006000407801002032
S3150000594010B582B0EFF30383103B374A5BB252F8CF
S3150000595023000269D37A23F00803D37290F82F301C
S31500005960002B3DD190F82A1003F0FF0C90F82C3054
S3150000597099421AD1036A53B990F82D1090F8304025
S31500005980C1F10301C9B2B4B3D372FFF7C9FEEFF395
S315000059900383103B5BB22549C03351F8232022F420
S315000059A0803241F8232002B010BDFBB190F82D40A3
S315000059B004F0FF0134B1022B0ABF90F829106146AA
S315000059C041F001014FF0000C82F80BC0D17090F845
S315000059D02B200133013A80F82B2080F82C30D6E7B3
S315000059E0F023D3720121FFF79BFED0E7012909D0EE
S315000059F090F82910E6E7F023D372937803F0CF03EB
S31500005A009370C2E70190FFF771FE019890F82A3073
S31500005A10012B05D190F82810026990F82C30D1E7B7
S31500005A20026990F82C30E3E778010020006000401E
S31500005A30F0B583B0EFF30384103C154B64B253F812
S31500005A402450EF68BFB16A682B6992F90D20121BCA
S31500005A5018BF01226E46C3B193E8030086E803002F
S31500005A601A706A695A601846B8472B691BB196E8DE
S31500005A70030083E80300074AC03452F8243023F4B5
S31500005A80803342F8243003B0F0BD3346E8E700BF68
S31500005A907801002000600040EFF30383103B5BB207
S31500005AA0064A074952F823200120C033107251F8E4
S31500005AB0232022F4803241F8232070477801002009
S31500005AC00060004010B4CBB201249C40A4B202B9DD
S31500005AD024040B0A5B0103F1804303F580230020B5
S31500005AE09C605DF8044B704730B4EFF310840123DB
S31500005AF083F310881C4B186818B91C4DE8704020B9
S31500005B00E87018680130186084F31088D4034FEAEF
S31500005B101120C9B219D40001154C084444F82020BC
S31500005B20EFF31082012181F31088196811B1196809
S31500005B30013919601B681BB90C498020CB70C870ED
S31500005B4082F31088002030BC704701EB001C084C23
S31500005B5054F82C5025F4803544F82C5022F4803526
S31500005B6044F82C500001D7E774010020000D0440D2
S31500005B700008044070B5C36A84B004468C461646D5
S31500005B8001AD9BB193E8070085E8070083F808C0DC
S31500005B90226B1846C3E90026A26A9047E36A1BB146
S31500005BA095E8070083E8070004B070BD2B46EDE7D3
S31500005BB08268012370B580F820300226B323D371A2
S31500005BC080F821605379044623F001035371C269BA
S31500005BD00D46FFF7CFFFA368DE705A7942F0010247
S31500005BE05A7194F82120012A16D094F8212002B186
S31500005BF070BD052DFCD194F82320002AF8D194F825
S31500005C0021201AB95A7A02F0F3025A72BF210122F0
S31500005C10D97184F8232070BD4FF48872EA40D20708
S31500005C20E3D594F82320002AE2D1E8E730B583B023
S31500005C30EFF30383103B5BB24249C03351F8232094
S31500005C4022F4803241F82320EFF30383103B5BB24A
S31500005C503D4A52F8234094F82230B3B9A368012292
S31500005C6084F82220DA7CD2B28DF805209DF8052032
S31500005C7012F0010F5A7A14BF02F0F70202F0F30293
S31500005C805A72AC22DA7103B030BD94F820304BB9A9
S31500005C90A3681B7A13F0080F20460CBF04210821C5
S31500005CA0FFF786FF2269A3689AB9D97CC9B28DF835
S31500005CB006109DF80610197941F01001197119792D
S31500005CC041F008011971197962F30411197103B0D1
S31500005CD030BDA1698A4209D0E268DB7C481CA0611C
S31500005CE05354E3690133E36103B030BD022584F800
S31500005CF021505979E26921F00101597120460621A6
S31500005D00FFF738FFA3682169DD705A7942F0010276
S31500005D105A7191B9DA7CD2B28DF807209DF8072026
S31500005D201A7942F010021A711A7942F008021A71B1
S31500005D301A7961F304121A71A5E7A269E168DB7C9E
S31500005D40501CCCE7006000407801002038B5EFF326
S31500005D500383103B5BB22349C03351F8232022F45E
S31500005D60803241F82320EFF30383103B5BB21E4AD7
S31500005D7052F8234094F8203093B194F8213003F080
S31500005D80FF0263B9A3692069A16898420DD0E26950
S31500005D90E0680132C05C88740133C4E9063238BD5C
S31500005DA005212046FFF704FFE7E723680D4893F92E
S31500005DB00E3003F1C004002B50F8245062F3104556
S31500005DC040F8245009DB5A09084C03F01F03012050
S31500005DD0603200FA03F344F82230CB7943F04003F3
S31500005DE0CB7138BD006000407801002000E100E082
S31500005DF038B5EFF30383103B204A5BB252F82340D9
S31500005E00A1680B795807C3F3800217D5CA7922F027
S31500005E104002C023CA7101E0013B02D0CA79520692
S31500005E20FAD4EFF30383103B5BB21549C03351F844
S31500005E30232022F4803241F8232038BD022584F83D
S31500005E4021504B7962F300032046E2694B7107212A
S31500005E50FFF790FEA168CD704B7943F001034B71BB
S31500005E6094F82130002BD1D1A369E269E0680132B0
S31500005E70C05C88740133C4E90632C7E778010020A4
S31500005E800060004010B582B0EFF30383103B3D4A3B
S31500005E905BB252F8230083685A7A910746D1D1B291
S31500005EA011F00C0F35D0012280F8242090F8211033
S31500005EB0C269012963D0046981698C4256D80321DD
S31500005EC04FF0000EA024DC7180F820E080F822E07C
S31500005ED093F805C06EF3000C83F805C090F82440D3
S31500005EE0002C47D083F809E000240223C46180F81F
S31500005EF02130FFF73FFEEFF30383103B5BB22249ED
S31500005F00C03351F8232022F4803241F8232002B016
S31500005F1010BDCA06EFD5DA7CD2B28DF807209DF8FF
S31500005F200720DA7902F0EF02DA71E4E70022A02115
S31500005F3080F82420D97180F8202080F82220597911
S31500005F4062F30001597190F8241069B9DF219F228C
S31500005F5019701A7000210223C26980F82130C161CC
S31500005F600121FFF707FEC6E75A72F3E7013AC2615D
S31500005F700321A5E7DF241C709F241C70B4E70221CF
S31500005F809EE700BF780100200060004030B5836BBB
S31500005F9083B004460A466D46A3B193E8030085E83C
S31500005FA00300E16B1A71626B196018469047A36B88
S31500005FB01BB195E8030083E80300002384F82B3027
S31500005FC003B030BD2B46ECE72DE9F04F0468DFF84F
S31500005FD06091656A6668DFF85C819DF924C04FEAC6
S31500005FE0011E01691F240C705F240C70DF240C70E5
S31500005FF02C7944F0E0040C74EC7844F0E0044C7422
S31500006000AC78240104F0700444F008048C702C78F9
S315000060106F789DF92850012C14BF0424052444EA06
S315000060204704E4B2CC70404CA64214BF7726F7264C
S3150000603009EB05044E7100275FFA8EFEB3268F71B9
S31500006040CE7184F800E305F1C00648F82500374C08
S315000060504FEA551A54F826B04FEA8A0A67F3104BEE
S315000060600AF1604A44F826B00AF5614A012605F0AD
S315000060701F0506FA05F5CAF88051CAF8005009EB63
S31500006080030503F1C00A85F800E348F823005D091B
S31500006090AD0054F82AB005F1604505F5614503F0F9
S315000060A01F0306FA03F367F3104B44F82AB0C5F84A
S315000060B080312B6009EB0C030CF1C00A83F800E376
S315000060C04FEA5C1548F82C00AD000CF01F0305F1F3
S315000060D0604554F82AC0914405F5614506FA03F374
S315000060E067F3104C44F82AC0C5F880312B6089F854
S315000060F000E348F8220002F1C000530902F01F0233
S31500006100964054F820209B0067F3104203F1604349
S3150000611044F8202003F561439F22C3F880611E6086
S315000061200A70BDE8F08F00BF40420F0000600040DB
S3150000613000E100E07801002010B483B0EFF30383A0
S31500006140103B5BB24849C03351F8232022F4803219
S3150000615041F82320EFF30383103B444A5BB252F825
S31500006160233093F82D20BAB999691A69022903D800
S31500006170117941F040011171D969012917D0D27CFA
S31500006180D2B28DF8072001219DF8072083F82D1043
S3150000619003B05DF8044B7047DA69002AF8D0032A89
S315000061A00ED0022A4ED0012A21D019690DE01179AC
S315000061B041F010011171117941F008011171DEE70A
S315000061C019690A7942F040020A711A6A5869C97C4B
S315000061D08154D3E907210131013AC3E90721002A95
S315000061E0D6D119690B7962F386130B71D0E793F850
S315000061F02A1089B319681E4C91F90F1048092030EE
S3150000620001F01F0102FA01F144F82010BFF34F8F8D
S31500006210BFF36F8F1969C87940F08000C87108799B
S3150000622040F01000087108794FF0040C20F00800C7
S31500006230087181F801C0487920F00100487183F89F
S315000062402C20C2E719690A7942F010020A710A790C
S3150000625042F008020A71B8E719694A7A082002F082
S31500006260F7024A724870B0E70060004078010020EB
S3150000627000E100E0EFF30383103B5BB23549C03326
S3150000628051F8232022F4803241F82320EFF30383D0
S31500006290103B5BB2304A52F8231091F82730002B9E
S315000062A037D191F829309BBBCB69086910B4002B14
S315000062B041D1C37923F08003C022C37101E0013AC2
S315000062C002D0C379DB09FAD10B68224993F9103061
S315000062D003F1C00C002B51F82C2022F4803241F837
S315000062E02C2009DB5A091D4C03F01F0301216032E3
S315000062F001FA03F344F82230C3795DF8044B43F006
S315000063004003C3717047022A09D191F8300030B9B1
S31500006310704791F8260091F828200328F3D00869E1
S3150000632091F824C080F812C00132013B81F8282080
S3150000633081F8273070470A6A4C69013B14F802C09D
S3150000634080F812C00132C1E90732002BB1D05DF8E6
S31500006350044B7047006000407801002000E100E037
S3150000636010B4EFF30383103B2B4A5BB252F8233091
S3150000637093F829201AB193F82720012A47D0DA6921
S31500006380D2B11969CA7922F04002C023CA7101E06C
S31500006390013B02D0CA795206FAD4EFF30383103BCD
S315000063A05BB21E49C03351F8232022F4803241F8F3
S315000063B023205DF8044B704793F82A10F9B1196849
S315000063C0174C91F90F10480920304FF0010C01F0DD
S315000063D01F010CFA01F144F82010BFF34F8FBFF3F1
S315000063E06F8F1969C87940F08000C8710420487021
S315000063F0487962F30000487183F82CC0C2E7196936
S315000064004B7A082203F0F7034B724A70BAE793F807
S315000064103020002AB3D1B4E77801002000600040A4
S3150000642000E100E070B582B0EFF30383103B4C4A05
S315000064305BB2E02152F8234023695A7A5972D0B2EE
S3150000644002F00301D20616D55A78560615D5A1B91B
S315000064505A785506C2F380116CD4010742D594F8D8
S315000064602B20002A52D194F82910B322C1F103013E
S31500006470C9B2DA7125E00029EFD0E269012184F87A
S315000064802B10002A39D020680025DD7190F91160A3
S3150000649090F90F3090F90E20417B019690F910008B
S315000064A000902046FFF790FD94F82610A269236914
S315000064B0E56184F82810226284F82C50B322DA7140
S315000064C001212046FFF762FDEFF30383103B5BB229
S315000064D02449C03351F8232022F4803241F8232086
S315000064E002B070BD94F82C20002AEDD04207EBD5FF
S315000064F094F82B20002AE3D1B5E794F82C20002A43
S31500006500C1D194F82B20002AD8D0BCE7E26932B971
S3150000651094F82C201AB994F82B20002ACED0002209
S3150000652094F82600A169E26184F82800216284F8C3
S315000065302C20C3E784F82B105A7A216802F0F70260
S31500006540496A5A72082058700A78012A14BF022232
S315000065500322DA705A7942F001025A71B4E700BF99
S31500006560780100200060004010B582B0EFF303848C
S31500006570103C164B164964B253F8242050790B5C34
S3150000658003F00303032B0FD0C03451F8243023F457
S31500006590803341F82430936823B1D268CDE90020D6
S315000065A06846984702B010BD936823B1D268CDE91A
S315000065B0002068469847064AC03452F8243023F42F
S315000065C0803342F8243002B010BD00BF78010020AD
S315000065D0006000400346D3E9022300205360704761
S315000065E0D0E90123D26930B4D2E9011444F0004461
S315000065F0D0685C61D2E9045440F0004041F00041AB
S315000066009861196100205D629C6230BC704700BFD2
S31500006610002800DA704710B400F16043114C03F50E
S3150000662061430901C9B283F8001344F820200E49DA
S3150000663000F1C00200F01F0C51F822304009800022
S3150000664023F4803300F1604041F8223000F56140C8
S31500006650012303FA0CF3C0F880315DF8044B0360A4
S31500006660704700BF780100200060004070B5836964
S3150000667084B004468C46164601AD9BB193E80700EC
S3150000668085E8070083F804C0E2691A609E60184630
